:020000040800F2
:1000000000C00020D5C4000809BF000811BF0008C7
:1000100019BF000821BF000829BF00080000000028
:1000200000000000000000000000000031BF0008D8
:100030003DBF00080000000049BF000855BF000890
:100040001DC500081DC500081DC500081DC5000808
:100050001DC500081DC500081DC500081DC50008F8
:100060001DC500081DC500081DC500081DC50008E8
:100070001DC500081DC500081DC500081DC50008D8
:100080001DC500081DC500081DC500081DC50008C8
:1000900061BF00081DC500081DC500081DC500087A
:1000A0001DC500081DC500081DC500081DC50008A8
:1000B00089740008357800081DC500081DC50008B2
:1000C0001DC500081DC500081DC500081DC5000888
:1000D0001DC500081DC500081DC500081DC5000878
:1000E0001DC500081DC500081DC500081DC5000868
:1000F0001DC500081DC500081DC500081DC5000858
:100100001DC500081DC500081DC500081DC5000847
:100110001DC500081DC500081DC500081DC5000837
:100120001DC500081DC500081DC500081DC5000827
:1001300000000000000000000000000000000000BF
:1001400000000000000000000000000000000000AF
:10015000000000000000000000000000000000009F
:10016000000000000000000000000000000000008F
:10017000000000000000000000000000000000007F
:10018000000000000000000000000000000000006F
:10019000000000000000000000000000000000005F
:1001A000000000000000000000000000000000004F
:1001B000000000000000000000000000000000003F
:1001C000000000000000000000000000000000002F
:1001D000000000000000000000000000000000001F
:0401E0005FF8E0F1F3
:1001E80010B5054C237833B9044B13B10448AFF369
:1001F80000800123237010BD380200200000000099
:100208004C66010808B5034B1BB103490348AFF31B
:10021800008008BD000000003C0200204C66010878
:1002280010F8012B11F8013B012A28BF9A42F7D098
:10023800D01A7047034613F8012B002AFBD1181A6D
:100248000138704781F0004102E000BF83F00043AD
:1002580030B54FEA41044FEA430594EA050F08BF59
:1002680090EA020F1FBF54EA000C55EA020C7FEA1D
:10027800645C7FEA655C00F0E2804FEA5454D4EB9A
:100288005555B8BF6D420CDD2C4480EA020281EA64
:10029800030382EA000083EA010180EA020281EA9C
:1002A8000303362D88BF30BD11F0004F4FEA0131EE
:1002B8004FF4801C4CEA113102D0404261EB4101FD
:1002C80013F0004F4FEA03334CEA133302D0524283
:1002D80063EB430394EA050F00F0A780A4F101043F
:1002E800D5F1200E0DDB02FA0EFC22FA05F2801879
:1002F80041F1000103FA0EF2801843FA05F359415F
:100308000EE0A5F120050EF1200E012A03FA0EFCDD
:1003180028BF4CF0020C43FA05F3C01851EBE37107
:1003280001F0004507D54FF0000EDCF1000C7EEB24
:1003380000006EEB0101B1F5801F1BD3B1F5001F62
:100348000CD349085FEA30004FEA3C0C04F1010481
:100358004FEA445212F5800F80F09A80BCF1004FAA
:1003680008BF5FEA500C50F1000041EB045141EA2C
:10037800050130BD5FEA4C0C404141EB0101013CF5
:1003880028BFB1F5801FE9D291F0000F04BF0146E4
:100398000020B1FA81F308BF2033A3F10B03B3F1B6
:1003A80020020CDA0C3208DD02F1140CC2F10C0246
:1003B80001FA0CF021FA02F10CE002F11402D8BFA4
:1003C800C2F1200C01FA02F120FA0CFCDCBF41EA70
:1003D8000C019040E41AA2BF01EB0451294330BD3F
:1003E8006FEA04041F3C1CDA0C340EDC04F114041C
:1003F800C4F1200220FA04F001FA02F340EA0300F3
:1004080021FA04F345EA030130BDC4F10C04C4F138
:10041800200220FA02F001FA04F340EA0300294618
:1004280030BD21FA04F0294630BD94F0000F83F462
:10043800801306BF81F480110134013D4EE77FEA45
:10044800645C18BF7FEA655C29D094EA050F08BF91
:1004580090EA020F05D054EA000C04BF1946104672
:1004680030BD91EA030F1EBF0021002030BD5FEAB6
:10047800545C05D14000494128BF41F0004130BDDE
:1004880014F580043CBF01F5801130BD01F0004532
:1004980045F0FE4141F470014FF0000030BD7FEAA5
:1004A800645C1ABF194610467FEA655C1CBF0B46A0
:1004B800024650EA013406BF52EA033591EA030FB7
:1004C80041F4002130BD00BF90F0000F04BF0021AF
:1004D800704730B54FF4806404F132044FF00005E2
:1004E8004FF0000150E700BF90F0000F04BF00215B
:1004F800704730B54FF4806404F1320410F00045C1
:1005080048BF40424FF000013EE700BF42004FEABB
:10051800E2014FEA31014FEA02701FBF12F07F4338
:1005280093F07F4F81F06051704732F07F4208BFEF
:10053800704793F07F4F04BF41F40021704730B5F6
:100548004FF4607401F0004521F000411CE700BF42
:1005580050EA010208BF704730B54FF000050AE0C5
:1005680050EA010208BF704730B511F0004502D5C6
:10057800404261EB41014FF4806404F132045FEAC8
:10058800915C3FF4D8AE4FF003025FEADC0C18BF71
:1005980003325FEADC0C18BF033202EBDC02C2F163
:1005A800200300FA03FC20FA02F001FA03FE40EAF5
:1005B8000E0021FA02F11444BDE600BF4FF0FF3CE3
:1005C80006E000BF4FF0010C02E000BF4FF0010C45
:1005D8004DF804CD4FEA410C7FEA6C5C4FEA430CBE
:1005E80018BF7FEA6C5C1BD001B050EA410C0CBF0D
:1005F80052EA430C91EA030F02BF90EA020F00206F
:10060800704710F1000F91EA030F58BF994208BFD5
:1006180090422CBFD8176FEAE37040F00100704792
:100628004FEA410C7FEA6C5C02D150EA013C07D1E9
:100638004FEA430C7FEA6C5CD6D152EA033CD3D034
:100648005DF8040B704700BF8446104662468C462E
:100658001946634600E000BF01B5FFF7B7FF002861
:1006680048BF10F1000F01BD4DF808EDFFF7F4FF8A
:100678000CBF012000205DF808FB00BF4DF808ED15
:10068800FFF7EAFF34BF012000205DF808FB00BF38
:100698004DF808EDFFF7E0FF94BF012000205DF85A
:1006A80008FB00BF4DF808EDFFF7CEFF94BF01200F
:1006B80000205DF808FB00BF4DF808EDFFF7C4FF08
:1006C80034BF012000205DF808FB00BF4FEA41025B
:1006D800B2F1E04324BFB3F5001CDCF1FE5C0DD998
:1006E80001F0004C4FEAC0024CEA5070B2F1004FE2
:1006F80040EB830008BF20F00100704711F0804FE5
:1007080021D113F13872BCBF01F00040704741F4A9
:1007180080114FEA5252C2F11802C2F1200C10FAAD
:100728000CF320FA02F018BF40F001004FEAC12391
:100738004FEAD32303FA0CFC40EA0C0023FA02F335
:100748004FEA4303CCE77FEA625307D150EA01330B
:100758001EBF4FF0FE4040F44000704701F00040DB
:1007680040F0FE4040F40000704700BF80F00040B9
:1007780002E000BF81F0004142001FBF5FEA410371
:1007880092EA030F7FEA226C7FEA236C6AD04FEA71
:100798001262D2EB1363C1BFD218414048404140B6
:1007A800B8BF5B42192B88BF704710F0004F40F468
:1007B800000020F07F4018BF404211F0004F41F484
:1007C800000121F07F4118BF494292EA030F3FD050
:1007D800A2F1010241FA03FC10EB0C00C3F1200363
:1007E80001FA03F100F0004302D5494260EB4000F2
:1007F800B0F5000F13D3B0F1807F06D340084FEA5D
:10080800310102F10102FE2A51D2B1F1004F40EB51
:10081800C25008BF20F0010040EA030070474900B9
:1008280040EB0000013A28BFB0F5000FEDD2B0FA56
:1008380080FCACF1080CB2EB0C0200FA0CF0AABF79
:1008480000EBC25052421843BCBFD0401843704717
:1008580092F0000F81F4000106BF80F4000001321D
:10086800013BB5E74FEA41037FEA226C18BF7FEAF4
:10087800236C21D092EA030F04D092F0000F08BF36
:100888000846704790EA010F1CBF0020704712F01D
:100898007F4F04D1400028BF40F00040704712F15C
:1008A80000723CBF00F50000704700F0004343F0C1
:1008B800FE4040F4000070477FEA226216BF0846F7
:1008C8007FEA23630146420206BF5FEA412390EABA
:1008D800010F40F4800070474FF0000304E000BFB0
:1008E80010F0004348BF40425FEA000C08BF704761
:1008F80043F0964301464FF000001CE050EA010225
:1009080008BF70474FF000030AE000BF50EA010239
:1009180008BF704711F0004302D5404261EB410126
:100928005FEA010C02BF84460146002043F0B6434B
:1009380008BFA3F18053A3F50003BCFA8CF2083A70
:10094800A3EBC25310DB01FA02FC634400FA02FC79
:10095800C2F12002BCF1004F20FA02F243EB020080
:1009680008BF20F00100704702F1200201FA02FCE2
:10097800C2F1200250EA4C0021FA02F243EB0200D5
:1009880008BF20EADC7070474FF0FF0C1CEAD05219
:100998001EBF1CEAD15392EA0C0F93EA0C0F6FD0DA
:1009A8001A4480EA010C400218BF5FEA41211ED0B8
:1009B8004FF0006343EA501043EA5111A0FB0131A4
:1009C8000CF00040B1F5000F3EBF490041EAD37179
:1009D8005B0040EA010062F17F02FD2A1DD8B3F1F5
:1009E800004F40EBC25008BF20F00100704790F064
:1009F800000F0CF0004C08BF49024CEA502040EAB6
:100A080051207F3AC2BFD2F1FF0340EAC25070477B
:100A180040F400004FF00003013A5DDC12F1190FB9
:100A2800DCBF00F000407047C2F10002410021FA2B
:100A380002F1C2F1200200FA02FC5FEA310040F143
:100A4800000053EA4C0308BF20EADC70704792F0BC
:100A5800000F00F0004C02BF400010F4000F013AF4
:100A6800F9D040EA0C0093F0000F01F0004C02BFEF
:100A7800490011F4000F013BF9D041EA0C018FE75E
:100A88000CEAD15392EA0C0F18BF93EA0C0F0AD064
:100A980030F0004C18BF31F0004CD8D180EA01008A
:100AA80000F00040704790F0000F17BF90F0004F23
:100AB800084691F0000F91F0004F14D092EA0C0F05
:100AC80001D142020FD193EA0C0F03D14B0218BF98
:100AD800084608D180EA010000F0004040F0FE40DE
:100AE80040F40000704740F0FE4040F4400070477A
:100AF8004FF0FF0C1CEAD0521EBF1CEAD15392EAF9
:100B08000C0F93EA0C0F69D0A2EB030280EA010CE8
:100B180049024FEA402037D04FF0805343EA111181
:100B280043EA10130CF000408B4238BF5B0042F1DF
:100B38007D024FF4000C8B4224BF5B1A40EA0C0084
:100B4800B3EB510F24BFA3EB510340EA5C00B3EBB6
:100B5800910F24BFA3EB910340EA9C00B3EBD10FA4
:100B680024BFA3EBD10340EADC001B0118BF5FEAF6
:100B78001C1CE0D1FD2A3FF650AF8B4240EBC2501F
:100B880008BF20F0010070470CF0004C4CEA5020E0
:100B98007F32C2BFD2F1FF0340EAC250704740F42F
:100BA80000004FF00003013A37E792F0000F00F021
:100BB800004C02BF400010F4000F013AF9D040EA9F
:100BC8000C0093F0000F01F0004C02BF490011F433
:100BD800000F013BF9D041EA0C0195E70CEAD1532B
:100BE80092EA0C0F08D142027FF47DAF93EA0C0F12
:100BF8007FF470AF084676E793EA0C0F04D14B02F6
:100C08003FF44CAF08466EE730F0004C18BF31F0A7
:100C1800004CCAD130F000427FF45CAF31F00043A1
:100C28007FF43CAF5FE700BF4FF0FF3C06E000BF3A
:100C38004FF0010C02E000BF4FF0010C4DF804CD5D
:100C48004FEA40024FEA41037FEA226C18BF7FEA6D
:100C5800236C11D001B052EA530C18BF90EA010F6F
:100C680058BFB2EB030088BFC81738BF6FEAE170FE
:100C780018BF40F0010070477FEA226C02D15FEA9A
:100C8800402C05D17FEA236CE4D15FEA412CE1D006
:100C98005DF8040B704700BF844608466146FFE7CD
:100CA8000FB5FFF7C9FF002848BF10F1000F0FBDAF
:100CB8004DF808EDFFF7F4FF0CBF012000205DF8A8
:100CC80008FB00BF4DF808EDFFF7EAFF34BF01202D
:100CD80000205DF808FB00BF4DF808EDFFF7E0FFC6
:100CE80094BF012000205DF808FB00BF4DF808ED17
:100CF800FFF7D2FF94BF012000205DF808FB00BF7A
:100D08004DF808EDFFF7C8FF34BF012000205DF85B
:100D180008FB00BF4FEA40024FEA41037FEA226C1A
:100D280002D15FEA402C08D17FEA236C02D15FEA46
:100D3800412C02D14FF0000070474FF0010070477E
:100D48004FEA4002B2F1FE4F0FD34FF09E03B3EBD0
:100D580012620DD94FEA002343F0004310F0004F10
:100D680023FA02F018BF404270474FF00000704766
:100D780012F1610F01D1420205D110F0004008BF05
:100D88006FF0004070474FF00000704742000ED2ED
:100D9800B2F1FE4F0BD34FF09E03B3EB126209D4AE
:100DA8004FEA002343F0004323FA02F070474FF064
:100DB8000000704712F1610F01D1420202D14FF0D9
:100DC800FF3070474FF00000704700BF80B500AF9C
:100DD8000AF004FF00F015F800BF80BD80B582B0AE
:100DE80000AF0023FB710AF027FF0346002B03D056
:100DF800FB7943F00103FB71FB7918460837BD46C0
:100E080080BD80B500AF00200AF0F2FE00200AF095
:100E180001FF00BF80BD000080B582B000AF03466F
:100E2800FB710E4B5B78002B14D1FB79002B02D1A0
:100E3800FFF7E7FF0AE0FB7903F04003002B14BF3C
:100E480001230023DBB218460AF0D2FE034B00222E
:100E5800DA7200E000BF0837BD4680BDEC0600200E
:100E680080B582B000AF0346FB71074B1B78022B9D
:100E780006D003F08DFFFB791846FFF7CDFF00E0A1
:100E880000BF0837BD4680BDEC060020B0B588B06D
:100E980000AF07F1080300221A605A609A60DA600E
:100EA80000237B600BF03CFD0023BB60224B3B61C1
:100EB80001237B613A1D07F10803114618460BF020
:100EC80017FE0346002B30D10023FB6127E01B4AA5
:100ED800FB6913441B781AB2FB6901331749CB5CD1
:100EE8001BB21B021BB213431BB27B837B8B4FF6D7
:100EF800FF72934210D0FB6903F1006101F57E3166
:100F08007B8B00221C46154622462B4601200BF0FF
:100F180097FC0346002B07D1FB690233FB61FB6991
:100F2800B3F5806FD3D300E000BF0BF01FFD00BF07
:100F38002037BD46B0BD00BF00F8030854020020AA
:100F480080B500AF0C4A0D4B104619464FF480632C
:100F58001A4613F072F9084B1B780B2B09D0064B75
:100F68001B780A2B05D04FF48062FF21024813F04A
:100F78006FF800BF80BD00BF5402002000F80308CE
:100F880080B483B000AF7860044A7B6813441B7850
:100F980018460C37BD4680BC704700BF540200207D
:100FA80080B483B000AF78600B46FB70044A7B685E
:100FB8001344FA781A7000BF0C37BD4680BC7047DE
:100FC8005402002080B586B000AFF860B9607A603E
:100FD8000023FB751DE097F917305B005AB2FB7DC3
:100FE800DB09DBB25BB213435BB2FB75BB681A78F3
:100FF800FB7D1344FB75FA68531CFB60BB68591CE6
:10100800B9601B7819461046FFF7CAFF7B68013B99
:101018007B607B68002BDED1FB7D1946F868FFF703
:10102800BFFFFFF733FF00BF1837BD4680BD80B54F
:1010380086B000AFF860B9607A600023FB751EE0E7
:10104800BB685A1CBA601846FFF79AFF0346BB757F
:1010580097F917305B005AB2FB7DDB09DBB25BB254
:1010680013435BB2FB75FA7DBB7D1344FB75FB68CC
:101078005A1CFA60BA7D1A707B68013B7B607B68FA
:10108800002BDDD1B868FFF77BFF03461A46FB7DCE
:1010980093420CBF01230023DBB218461837BD4624
:1010A80080BD000080B500AF50220021084812F032
:1010B800CFFF074B9B790749184605F0EBFD034620
:1010C800002B02D1072004F035FB00BF80BD00BF14
:1010D800540600208006002080B500AF024903486E
:1010E80007F048FD00BF80BD000700207006002003
:1010F800B0B59EB006AF786048220021D04812F003
:10110800A7FFCF4BCF495A1C0B4603CB1060516049
:1011180019889B7811819372002387F85F30002328
:1011280087F85B30002387F85A30002387F8593056
:101138000023A7F856300023A7F85430002387F877
:1011480053307B681B78242B0BD197F8533043F02E
:10115800010387F85330BA4B01225A70B84B00226A
:101168009A70002387F846300023A7F8503097F884
:10117800533003F00103002B04D0032387F82D30EC
:1011880000F005BC002387F82D3000F000BC97F86C
:101198002D301A467B6813441B7887F82E3097F851
:1011A8002E30402B03D997F82E305A2B02D9012321
:1011B80001F0EEBC97F82D300133DBB287F82D3003
:1011C80007F1280207F12D031946786802F0FCFBA5
:1011D8000346002B02D1022301F0DABCBB6A184691
:1011E80014F0B8F903461846FFF7D0FD034687F810
:1011F8004630BC6A97F846301846FFF771FB03463D
:1012080019462046FFF7B6FA03468F491846FFF7F6
:10121800BBFB0346184614F06FF80346A7F8503096
:1012280097F82E30472B03D04D2B00F0EA819BE234
:1012380097F846305E2B00F2BB8101A252F823F0EA
:101248003914000839140008391400083914000842
:10125800E1130008B9150008B9150008B915000808
:10126800B9150008B9150008C5130008B915000814
:10127800B9150008B9150008B9150008B91500080E
:10128800B9150008C1140008C1140008C1140008E9
:101298002B1500082B150008B9150008B91500080A
:1012A800B9150008B9150008B9150008B9150008DE
:1012B800C5130008B9150008C5130008B9150008BA
:1012C800B9150008B9150008B9150008B9150008BE
:1012D800B9150008B915000839140008B91500082F
:1012E80041150008B9150008B91500084915000886
:1012F800B9150008B9150008B9150008B91500088E
:10130800B915000849150008B9150008B9150008ED
:10131800B9150008E1130008911500089115000897
:1013280091150008911500089115000891150008FD
:10133800B9150008A5150008B9150008B915000861
:10134800B9150008B9150008B9150008B91500083D
:10135800B9150008B9150008B9150008B91500082D
:10136800B9150008B9150008B9150008B91500081D
:10137800B9150008B9150008B9150008B91500080D
:101388005B140008B9150008B9150008B91500085C
:10139800B9150008B9150008B9150008B9150008ED
:1013A800B9150008B9150008D5140008D5140008A7
:1013B800C51300081515000815150008B7F85030B2
:1013C800002B09D197F85F30002B02D0182301F0C9
:1013D800DFBB012387F85F30002387F85230184AB3
:1013E80097F84630137097F846301C2B08D097F8BA
:1013F80046301E2B04D097F846305C2B40F0DB803B
:10140800B7F85030002B06D0B7F850300A2B02D06E
:10141800142301F0BDBB0A4B1A78B7F85030DBB281
:101428001344DAB2064B1A700023A7F85030C2E012
:1014380097F85F30002B09D0182301F0A9BB00BF33
:10144800A4060020540600200000C842022387F8A2
:101458005F30012387F85230C14A97F846305370FD
:1014680097F84630262B40F0A880B7F85030142B58
:101478000ED0B7F850301E2B0AD0B7F85030282BB2
:1014880006D0B7F85030322B02D0142301F080BBBD
:10149800B34B5A78B7F85030B249A1FB0313DB08B5
:1014A8009BB2DBB21344DBB26433DAB2AC4B5A7092
:1014B8000023A7F8503080E0022387F8523097F8CD
:1014C8004630113BDAB2A64B5A7179E0B7F8503082
:1014D800002B09D1032387F8523097F846305A3B3E
:1014E800DAB29F4B1A716BE0042387F85230B7F8D1
:1014F80050300A2B03D197F846305A2B02D11423C7
:1015080001F046BB0023A7F8503059E0052387F8BF
:10151800523097F84630C3F15E03DAB2904B9A70B6
:101528004EE0062387F8523097F84630C3F115038A
:10153800DAB28B4BDA7043E0072387F852303FE08A
:10154800082387F8523097F85F30002B02D0182311
:1015580001F01EBB032387F85F3097F84630312B24
:1015680003D17F4B00229A710AE0B7F850300A2B5A
:1015780003D17B4B01229A7102E0142301F008BBCE
:101588000023A7F850301BE0092387F8523097F85A
:101598004630363BDAB2724BDA7111E00A2387F82B
:1015A8005230B7F85030002B09D0142301F0F0BAAC
:1015B800142301F0EDBA00BF02E000BF00E000BF55
:1015C800B7F85030002B02D0172301F0E1BAB7F872
:1015D800562097F8523042FA03F303F00103002B28
:1015E80002D0152301F0D4BA97F85230012202FA3A
:1015F80003F31AB2B7F9563013431BB2A7F85630A3
:10160800C5E1B7F85030002B02D0172301F0C0BA5B
:1016180097F846301E2B00F2848001A252F823F07E
:10162800A5160008A5160008A5160008CF1600087C
:10163800CF160008CF1600082B1700082B17000834
:1016480005170008051700082B1700082B170008B6
:101658002B1700082B1700082B1700082B1700085A
:101668002B1700082B1700082B1700082B1700084A
:101678002B1700082B1700082B1700082B1700083A
:101688002B1700082B1700082B1700082B1700082A
:101698002B1700082B170008A51600080B2387F83E
:1016A800523097F84630002B02D0012B09D003E0C6
:1016B8002B4B03221A7205E0294A97F84630137219
:1016C80033E000BF31E00C2387F8523097F84630FA
:1016D800052B0ED0052B27DC032B02D0042B04D0BE
:1016E80022E01F4B10229A7207E01D4B20229A72AB
:1016F80003E01B4B00229A7200BF15E00D2387F808
:10170800523097F84630082B02D0092B04D00CE051
:10171800134B40225A7203E0114B00225A7200BF49
:1017280003E0142301F034BA00BFB7F8562097F845
:10173800523042FA03F303F00103002B02D01523C1
:1017480001F026BA97F85230012202FA03F31AB2CE
:10175800B7F9563013431BB2A7F8563017E100BF4C
:10176800A4060020CDCCCCCC97F82E30413B192BC9
:1017780000F2DB8001A252F823F000BFED17000849
:101788003319000833190008331900083319000801
:10179800071800083319000833190008151800083D
:1017A8002F180008491800086318000833190008A2
:1017B8007518000833190008931800083319000831
:1017C800A1180008AF180008BD1800083319000850
:1017D8003319000833190008E5180008FF18000835
:1017E800191900080D2387F85230BB6AAE4A5364B2
:1017F80097F85A3043F0080387F85A3098E00023E6
:1018080087F85230BB6AA84AD36091E0012387F871
:101818005230BB6AA44A136197F8593043F0010368
:1018280087F8593084E0022387F85230BB6A9E4A11
:10183800536197F8593043F0020387F8593077E03D
:10184800032387F85230BB6A974A936197F8593057
:1018580043F0040387F859306AE0042387F85230CC
:10186800914A97F8463082F8203061E0052387F8DE
:101878005230BB6A184613F06DFE03461846FFF750
:101888005FFA0346884A536252E0062387F85230CB
:10189800BB6A854A93624BE0072387F85230BB6ADC
:1018A800814AD36244E0082387F85230BB6A7E4AF3
:1018B80013633DE0092387F85230BB6A7B49184619
:1018C800FFF71EFA0346002B02D0262301F060B969
:1018D800754A97F8463082F8343029E00A2387F8A9
:1018E8005230BB6A704A936397F85A3043F0010349
:1018F80087F85A301CE00B2387F85230BB6A6A4AD3
:10190800D36397F85A3043F0020387F85A300FE050
:101918000C2387F85230BB6A634A136497F85A302D
:1019280043F0040387F85A3002E0142301F030B979
:10193800B7F8542097F8523042FA03F303F0010342
:10194800002B02D0192301F023B997F8523040F246
:10195800613242FA03F303F00103002B0BD0BB6A98
:101968004FF000011846FFF7ADF90346002B02D0EF
:10197800042301F00DB997F85230012202FA03F35B
:101988001AB2B7F9543013431BB2A7F8543097F87A
:101998002D301A467B6813441B78002B7FF4F7AB75
:1019A80097F85A30002B06D097F85F30002B02D1F9
:1019B800022387F85F30B7F8543003F02003002B78
:1019C80007D0394B5B6A3A4A934202DD1B2301F088
:1019D800DFB897F8533003F00103002B17D0B7F89E
:1019E800543003F00103002B02D1162301F0D0B8C4
:1019F8002D4BDB78012B40D12B4BDB682D4918464A
:101A0800FEF7C2FF03461A46274BDA6035E0264B3D
:101A18009B78012B14D197F85F30022B2DD1224BE4
:101A28005B78502B29D0204B5B78002B25D0B7F85A
:101A3800543003F00103002B1FD1162301F0A8B87E
:101A48001D4B5B78002B18D1B7F8543003F0010315
:101A5800002B0ED0144BDB78012B0ED1124BDB6818
:101A680014491846FEF790FF03461A460E4BDA60F3
:101A780003E0114B1B690C4AD360B7F8543003F4E8
:101A88008073002B03D10C4BDB68074A1363064BAA
:101A98001B78042B18D1B7F8543003F04003002BFF
:101AA8000CD11C2301F074B8A406002000007F4369
:101AB800809698003333CB4154060020B7F8543051
:101AC80023F04003A7F85430B34B5B79002B02D0C6
:101AD800012B0AD013E0002387F85E30012387F832
:101AE8005D30022387F85C3012E0022387F85E300D
:101AF800002387F85D30012387F85C3008E0012374
:101B080087F85E30022387F85D30002387F85C3061
:101B1800A14BDB78012B2FD1002387F84F3027E02A
:101B280097F85A2097F84F3042FA03F303F001036D
:101B3800002B18D097F84F30032B14D097F84F305C
:101B4800954A0C339B0013449B6897F84F40934980
:101B58001846FEF719FF034619468F4A04F10C038D
:101B68009B001344996097F84F30013387F84F3042
:101B780097F84F30032BD3D997F85F30032B0AD14E
:101B8800854B9B79012B06D197F85A30042B02D04C
:101B9800252300F0FDBF824B07F118042C330FCB2F
:101BA80084E80F00B7F8563003F40073002B1AD0FE
:101BB800794BDB79062B02D91D2300F0E9BF784B5E
:101BC8009A79754BDB799A420DD0734BDB7907F123
:101BD80018021146184605F05DF80346002B02D19D
:101BE800072300F0D5BF6C4B1B780A2B03D05C2B66
:101BF80000F0C7803FE197F85A30002B02D11A2332
:101C080000F0C6BFB7F8543003F05003002B02D1E0
:101C18001C2300F0BDBF604B9B6A184613F09AFC6A
:101C280003461846FFF7B2F8034687F85B3097F883
:101C38005B30062B02D91D2300F0AABF564B93F840
:101C48002030142B10D0544B93F82030022B08D19D
:101C5800B7F8543003F08003002B05D0142300F0AC
:101C680097BF142300F094BFB7F8543023F0500303
:101C7800A7F8543097F85B30002B05D097F85B3005
:101C8800013B87F85B3003E0434BDB7987F85B3037
:101C980097F85B304349184604F0FCFF0346002BD5
:101CA80002D1072300F074BF002387F84F3063E0A8
:101CB80097F85A2097F84F3042FA03F303F00103DC
:101CC800002B54D0344B93F82030142B41D197F883
:101CD8004F30334A06339B0013445A6897F84F3005
:101CE8002F490E339B000B445B6819461046FEF7DC
:101CF80041FD0346184697F84F30274A0C339B009E
:101D080013449B6897F84F401946FEF733FD034686
:101D18001946214AA31C9B001344996097F84F3039
:101D2800022B24D197F84F301B4A02339B001344EF
:101D38009B681B4AD26C97F84F4011461846FEF72D
:101D480019FD03461946144AA31C9B0013449960C5
:101D58000DE097F84F3097F84F100F4A0C339B005F
:101D680013449A680C488B1C9B0003449A6097F8AC
:101D78004F30013387F84F3097F84F30032B97D9FE
:101D8800B0E197F85A30002B02D11A2300F000BFB7
:101D9800002387F84F3069E0A40600203333CB4195
:101DA80054060020B406002097F85A2097F84F30C0
:101DB80042FA03F303F00103002B43D097F84F30A6
:101DC800BF4A06339B0013445A6897F84F309B006C
:101DD80060333B4453F8483C19461046FEF7CAFCAA
:101DE8000346184697F84F30B64A0C339B00134405
:101DF8009B6897F84F401946FEF7BCFC0346194606
:101E0800B04A04F10C039B001344996097F84F30D3
:101E1800022B26D197F84F30AA4A0C339B00134463
:101E28009B68A74AD26C97F84F4011461846FEF7B0
:101E3800A1FC03461946A34A04F10C039B00134472
:101E480099600EE097F84F3097F84F109C4A0E3380
:101E58009B0013445A689B4801F10C039B00034400
:101E68009A6097F84F30013387F84F3097F84F3022
:101E7800032B99D936E197F85F30032B00F0958052
:101E880097F85A30002B00F09080002387F84F30E5
:101E980086E097F85A2097F84F3042FA03F303F098
:101EA8000103002B0FD197F84F3097F84F10844A51
:101EB80006339B0013445A68824801F10C039B00C7
:101EC80003449A6067E07F4B1B78352B63D07D4BCA
:101ED8001B79002B43D197F84F307A4A0C339B007B
:101EE80013449D6897F84F309B0060333B4453F888
:101EF800482C97F84F3072490E339B000B445B68AF
:101F080019461046FEF738FC034697F84F40194625
:101F18002846FEF731FC034619466A4A04F10C03C9
:101F28009B001344996097F84F30022B33D197F8F0
:101F38004F30644A0C339B0013449B68604AD26C50
:101F480097F84F4011461846FEF716FC0346194607
:101F58005C4A04F10C039B00134499601BE097F85A
:101F68004F30584A0C339B0013449A6897F84F3007
:101F7800534906339B000B445B6897F84F4019465A
:101F88001046FEF7F9FB034619464E4A04F10C03C6
:101F98009B001344996097F84F30013387F84F300E
:101FA80097F84F30032B7FF674AF464B1B78352BD1
:101FB8003EDC1C2BC0F296801C3B192B00F2928051
:101FC80001A252F823F000BF3D200008ED200008D0
:101FD8003D200008ED200008ED200008ED20000855
:101FE800ED200008ED200008ED200008ED20000895
:101FF800ED200008ED200008ED200008ED20000885
:10200800ED200008ED200008ED200008ED20000874
:10201800ED200008ED200008ED200008ED20000864
:10202800ED200008ED200008ED200008D52000086C
:10203800662B57E0234B1B781C2B09D1224906201D
:1020480004F028FE0346002B0CD1072300F0A0BDA6
:102058001D49072004F01EFE0346002B02D107236A
:1020680000F096BD97F85A30002B25D0002387F84A
:102078004F301CE097F85A2097F84F3042FA03F394
:1020880003F00103002B0DD197F84F3097F84F104C
:102098000B4A06339B0013445A680A488B1C9B0062
:1020A80003449A6097F84F30013387F84F3097F818
:1020B8004F30032BDED915E0002387F85F3011E09D
:1020C80054060020A4060020B4060020AE4B5B781E
:1020D800002B06D0AC4B5B78012B02D01E2300F0FE
:1020E80057BD00BFA84B5B78502B07D197F85A30E3
:1020F800002B00F021821F2300F04ABD97F85F30C3
:10210800022B40F01982A04B5B78002B08D197F87E
:102118005A30002B40F01082002387F85F300BE222
:10212800994BDB684FF000011846FEF7C1FD0346E6
:10213800002B02D0162300F02BBD934B5B788F2B1E
:1021480000F3FA818C2B09DA032B26D0032B00F33A
:10215800F381012B12D0022B19D0EDE18C3B032B1C
:1021680000F2EA8101A252F823F000BFFF24000820
:10217800F3240008FF240008F324000897F85A30D5
:10218800002B40F0D681002387F85F30D1E197F823
:10219800533043F0040387F8533097F85A30002B34
:1021A80002D11A2300F0F4BC97F85A2097F85E3051
:1021B8000121994097F85D30012000FA03F30B43A1
:1021C8001340002B02D1202300F0E2BC97F85E30C8
:1021D8006D4A0C339B0013449A6897F85E306B493C
:1021E80006339B000B445B6819461046FEF7C2FA9B
:1021F80003463B6497F85D30634A0C339B001344F5
:102208009A6897F85D30614906339B000B445B6818
:1022180019461046FEF7AEFA0346FB63B7F854308A
:1022280003F08003002B00F0B980B7F8543023F096
:102238008003A7F8543010225549564811F0F8FE8B
:102248000346002B02D1212300F0A2BC4E4BDB78C1
:10225800012B09D14C4BDB6A4F491846FEF794FB1A
:1022680003461A46484BDA62474BDB6A4FF0814116
:102278001846FEF789FB03461A46434BDB6A1946A4
:102288001046FEF781FB03461C46396C386CFEF796
:102298007BFB034619462046FEF76CFA03461C46AC
:1022A800F96BF86BFEF770FB034619462046FEF7FC
:1022B80061FA0346BB644FF00001B86CFEF702FDFB
:1022C8000346002B02D0222300F062BCB86C12F047
:1022D8008FFF034683F00044F96B386C01F097FCDC
:1022E800034619462046FEF703FC0346BB64264B0B
:1022F8005B78032B03D1BB6C83F00043BB64224B98
:10230800DB6A4FF000011846FEF7DCFC0346002BA1
:1023180009D0BB6C83F00043BB641B4BDB6A83F0C2
:102328000043194AD362B96CF86BFEF72DFB0346DC
:102338001946386CFEF71EFA034697F85E404FF0D0
:102348007C511846FEF720FB034619460E4AA31C8B
:102358009B0013449960B96C386CFEF715FB034673
:10236800F96B1846FEF708FA034697F85D404FF0F8
:102378007C511846FEF708FB03461946024AA31C7F
:102388009B0013449960D7E0A4060020540600205F
:10239800DC060020700600203333CB4197F8592023
:1023A80097F85E300121994097F85D30012000FAD6
:1023B80003F30B431340002B01D12323E8E3B7F8C1
:1023C800543023F00E03A7F85430A34BDB78012BCD
:1023D8002AD1002387F84F3022E097F8592097F840
:1023E8004F3042FA03F303F00103002B13D097F8A0
:1023F8004F30994A02339B0013449B6897F84F402B
:1024080096491846FEF7C0FA03461946924AA31C95
:102418009B001344996097F84F30013387F84F3089
:1024280097F84F30032BD8D997F85E308A4A023391
:102438009B0013449B681946386CFEF79BF90346CA
:102448003B6497F85D30844A02339B0013449B68D1
:102458001946F86BFEF78EF90346FB63F96B386C87
:1024680001F0D5FBB86397F85E307B4A02339B00D6
:1024780013449A6897F85D30774902339B000B4400
:102488009B681946104601F0C2FB0346724AD362A4
:10249800714BDB6A1946B86BFEF76CF9034623F0FB
:1024A80000437B636E49786BFEF72AFC0346002BDA
:1024B80000D141E04FF07C51786BFEF721FC0346D8
:1024C800002B01D0212363E3634BDB6A654918467F
:1024D800FEF75AFA03461946786BFEF711FC0346D5
:1024E800002B00D128E0212352E397F8533043F022
:1024F800100387F85330584B5B788E2B03D0564B1C
:102508005B788F2B05D197F8533043F0080387F891
:10251800533097F85A30002B01D11A2338E3102290
:102528005149524811F084FD0346002B03D1212361
:102538002EE300BF00E000BF97F8533003F001031B
:10254800002B06D0B7F8543023F02103A7F85430F5
:1025580007E0B7F8543023F4487323F00103A7F8D1
:10256800543097F85F30002B05D0B7F8543023F477
:102578007053A7F85430B7F85430002B01D02423F7
:1025880006E307F10C033B630C220021386B11F0C2
:102598005FFD97F8533003F00103002B34D0B7F8F0
:1025A800563023F04903002B01D01023F0E22A4BC8
:1025B8001B78352B05D0284B1B78002B01D0102316
:1025C800E6E22B4BDA683B6B5A60294B5A7A284B68
:1025D8001B7A1343DBB23B7507F10C031E491846FF
:1025E80000F0E4FA034687F82F3097F82F30002BD5
:1025F80007D11F4A184B02F11C0438330FCB84E86B
:102608000F0097F82F30C3E21A4B93F8583003F0B5
:102618000203002B59D0104B5B78012B0DD00E4BC9
:102628005B78022B09D00C4B5B78032B05D097F80D
:10263800533043F0400387F8533097F85A30002B53
:102648001AD097F85F30022B16D197F8533063F001
:102658007F0387F8533038E0A40600203333CB419A
:102668000AD7A33B6F12833ADC06002070060020CD
:1026780054060020D0100020594B5B7A102B24D12F
:10268800574B1B78012B07D0554B1B78022B03D0D7
:10269800534B1B78032B0CD197F8533003F04003AE
:1026A800002B12D097F8533043F0200387F85330AB
:1026B8000BE097F8533003F04003002B05D197F84F
:1026C800533043F0200387F85330464B5B6A444A43
:1026D8009361444B9A78424B5A70414B5B78002B7C
:1026E80006D03B6B1B7A43F00803DAB23B6B1A72D5
:1026F8003C4BDB683A4A1361394B1A693B6B1A60E9
:10270800374BDB68374A126B11461846FEF7D0FA8A
:102718000346002B05D097F8533003F02003002B15
:1027280021D02F4B5B7A002B19D097F95330002B0F
:1027380015DB97F8533003F04003002B07D0284BE4
:102748005B7A4FF00001184604F0FCFD07E0244BCB
:102758005B7A244A126B1146184604F0F3FD214BAC
:102768001B6B1F4AD36097F8533003F04003002BCC
:1027780003D11B4BDA683B6B5A601A4B93F8342031
:10278800174B1A75164B5A7A164B9B7A9A420BD0EE
:10279800144B9A7A3B6B5B681946104604F0D2FDDD
:1027A800104B9A7A0E4B5A723B6B1A7A0C4B5B7A27
:1027B8001343DAB23B6B1A72094B1A7A094B5B7AEC
:1027C8009A4219D0074B5B7A1846FEF749FB054B2E
:1027D8005B7A002B08D1024B00221A720CE000BF72
:1027E80054060020A4060020A64B1A7AA64B5B7A52
:1027F8001343DAB2A34B1A723B6B1A7AA14B1B7ABA
:102808001343DAB23B6B1A729F4B1B78042B04D12B
:102818009D4B9B6A184600F0DFFF9B4B5A79994BFA
:102828001A71994BDA78974B9A7097F85F30032BA7
:102838001CD1954B9A79934B5A71924B5B79002B2B
:1028480003D1914B4FF000021A648E4BDB6C8E4A19
:10285800126C11461846FEF72BFA0346002B05D1D9
:10286800894B1B6C874AD36406F058F9854B9A79D3
:10287800854BDB799A420DD0834BDA79814B9A717B
:10288800804B03F12C0407F118030FCB84E80F00E9
:1028980006F044F97C4B1A797A4BDA707A4B1B783C
:1028A800662B00F09880662B00F39E80282B47DC6F
:1028B8000A2BC0F299800A3B1E2B00F2958001A2D8
:1028C80052F823F04F290008F1290008F1290008DF
:1028D800F1290008F1290008F1290008F129000868
:1028E800F1290008F1290008F1290008F129000858
:1028F800F1290008F1290008F1290008F129000848
:10290800F1290008F1290008F12900087D290008AB
:10291800F12900087D290008F1290008F12900089B
:10292800F1290008F1290008F1290008F129000817
:10293800F1290008B5290008F1290008BF29000875
:102948005C2B3DD050E097F85B305049184604F0B6
:1029580055F84C4B9B7997F85B209A4243D1494AEA
:10296800494B02F12C0410330FCB84E80F0006F01A
:10297800D5F838E03B6B1B7A43F00103DAB23B6BC6
:102988001A7297F85F30002B03D0396B404800F07B
:1029980053FC396B3D4800F04FFC3A4A3A4B02F180
:1029A8001C0410330FCB84E80F001DE039490620C2
:1029B80004F024F818E03749072004F01FF813E062
:1029C800304A314B02F13C0438330FCB84E80F0016
:1029D80006F0A4F808E0102200212F4811F038FB77
:1029E80006F09CF800E000BF274B5A78254B1A7078
:1029F800244B1B78502B75D097F85F30022B71D180
:102A0800002387F847301F4B1B78012B04D1396B03
:102A18001F4800F011FC52E01A4B1B78002B0BD119
:102A28003B6B1B7A43F00103DAB23B6B1A72396BCA
:102A3800174800F001FC42E0124B1B78022B03D030
:102A4800104B1B78032B29D10F4BDB6A97F85320C7
:102A580002F00402002A14BF01220022D2B204921A
:102A680097F85C20039297F85D20029297F85E2011
:102A780001920093054B074A396B054800F028FC82
:102A88001DE000BF54060020A4060020B406002064
:102A9800DC06002070060020900600203B6B1B7AA5
:102AA80043F00403DAB23B6B1A7297F853301A46B4
:102AB800396B394800F0C6FE034687F8473097F867
:102AC8004730002B08D1354A354B02F11C04383306
:102AD8000FCB84E80F0005E097F84730012B01D1B0
:102AE800FEF7FAFA2E4B1A7A2C4BDA712B4BDB795C
:102AF800002B4CD002F04CF9284BDB79032B09D181
:102B0800284B1B78022B3FD0082006F089F802F0EA
:102B180063F939E0214B01221A70204B00221A7107
:102B28001E4B0022DA701D4B00225A701B4B0022EC
:102B38009A711A4B00225A72184B00221A72194BBA
:102B48006422DA71174B64221A72164B64225A7285
:102B5800144B1B78022B14D0104B9B791249184642
:102B680004F098F80346002B01D1072310E005F084
:102B7800D5FF4FF00001002004F0A6FB0020FEF76F
:102B88004BF9082002F00CFE044B0022DA710023F6
:102B980018466037BD46B0BDDC060020540600204C
:102BA800A4060020EC0600208006002080B582B034
:102BB80000AF786039603B68DA687B681A607B68C8
:102BC8001B7A43F00403DAB27B681A72154B93F848
:102BD800583003F02003002B09D03B6838331846DF
:102BE80005F0E6FF0346002B01D00F2316E03B68F3
:102BF80038337968184600F01FFB0B4B1B78002B05
:102C08000BD101F069FA0346002B06D0064B2022AF
:102C18001A7004F0FDFE04F0ADFB002318460837D7
:102C2800BD4680BDD0100020EC06002080B500AF66
:102C380000F002F800BF80BD80B400AF00BFBD4601
:102C480080BC704780B582B000AF0023BB7108F02C
:102C58001DFF0346FB710A4B93F8583003F04003FD
:102C6800002B03D1FB7983F00703FB71FB7903F099
:102C78000703BB71BB7918460837BD4680BD00BF46
:102C8800D010002080B592B000AF0346FB71BF4B57
:102C98005B78002B40F0228207F11C03FB620C22B8
:102CA8000021F86A11F0D4F9FB6A06221A7203238C
:102CB80087F847304FF000033B64002387F83F3024
:102CC80037E097F83F2097F83F30B1498A5C48339E
:102CD8003B4403F8302CFA7997F83F3042FA03F373
:102CE80003F00103002B1FD097F83F30A94A0C339B
:102CF80052F82330A8491846FDF746FE0346194600
:102D0800386CFDF7FDFF0346002B01D03B6C0AE051
:102D180097F83F309F4A0C3352F823309E491846A3
:102D2800FDF732FE03463B6497F83F30013387F8DE
:102D38003F3097F83F30032BC3D9012387F83E3043
:102D4800944B1B6EBB6307F108039449184605F0C2
:102D580011FF002387F83730002387F83630002327
:102D680087F83F305EE0FA7997F83F3042FA03F38C
:102D780003F00103002B50D097F83630013387F861
:102D8800363097F83F30854A002142F82310814BAE
:102D980093F859301A4697F83F3042FA03F303F094
:102DA8000103002B17D097F83E30002B0AD097F874
:102DB8003F303A6C82F000429B0048333B4443F872
:102DC800402C1FE097F83F309B0048333B443A6C57
:102DD80043F8402C16E097F83E30002B08D097F8BF
:102DE8003F309B0048333B443A6C43F8402C09E0A1
:102DF80097F83F303A6C82F000429B0048333B44DE
:102E080043F8402C97F83F3048333B4413F8302CB4
:102E180097F83730134387F8373097F83F30013346
:102E280087F83F3097F83F30032B9CD997F8363016
:102E38001846FDF751FD0346184612F0D9F9034626
:102E48001946B86BFDF7A0FD0346BB634F4A97F8D8
:102E580037309371FB6ABA6B1A6007F10803F96A95
:102E6800184601F051FA494B04221A7104F0D0FDBA
:102E780004F080FA97F83E30002B3AD0FFF7E2FED4
:102E8800034687F82B30002387F83F3029E097F86E
:102E98003F3048333B4413F8302C97F83730134011
:102EA800DBB2002B18D097F82B2097F83F3042FA66
:102EB80003F303F00103002B0ED097F83F3048339B
:102EC8003B4413F8303C5BB2DB435AB297F93730D6
:102ED80013405BB287F8373097F83F30013387F8F3
:102EE8003F3097F83F30032BD1D9284A97F837302D
:102EF800937104F08DFD2A4B1B78DBB203F0340389
:102F0800002B51D0264B1B7887F82A3097F82A30A7
:102F180003F01003002B02D0062005F0C3FE97F83B
:102F28002A3003F02003002B02D0072005F0BAFE58
:102F380097F83E3083F00103DBB2002B0BD0FFF78C
:102F480081FE03461A46FB791340DBB2002B02D000
:102F5800082005F0A7FE97F83E30002B08D097F818
:102F68002A3003F00403002B02D0092005F09AFE52
:102F78000C4B1B78DBB2002B04D000F0EFFC01F007
:102F88002BFFACE0042005F06BFE15E0EC060020FA
:102F9800646E0108D01000200000C0BF00070020A8
:102FA800210700202207002097F8373003F00F038D
:102FB800DBB2002B7FF45EAF04F0A4FC494BB3F8FE
:102FC8006430184600F010FE97F83E30002B14BF0E
:102FD80001230023DBB283F00103DBB287F83E3024
:102FE80097F83E3003F0010387F83E3097F83E30FB
:102FF800002B0BD03B4B9B6E3B491846FDF7C4FC9E
:1030080003463B64374BDB6DBB6305E0354B9B6E7A
:103018003B64344B1B6EBB6397F847305A1E87F8E6
:103028004720002B7FF48FAE002387F83F304DE018
:10303800FA7997F83F3042FA03F303F00103002BC3
:103048003FD0284B93F859301A4697F83F3042FA48
:1030580003F303F00103002B1BD097F83F30214AFC
:103068000C3352F823301F4A926E11461846FDF76A
:1030780083FB0346184697F83F301A4A52F8233024
:103088001946FDF781FC0346184612F035F93863F6
:1030980011E0144B9B6E83F0004297F83F301149C2
:1030A80051F8233019461046FDF76EFC03461846C2
:1030B80012F022F9386397F83F300C493A6B41F81F
:1030C800232097F83F30013387F83F3097F83F3097
:1030D800032BADD9064B00221A7100E000BF483718
:1030E800BD4680BDD01000200000A0400007002091
:1030F800EC06002080B582B000AF7860786805F0F3
:1031080057FD0346002B1CD00F4B0122DA700E4BE3
:103118001B78082B0CD1082005F082FD01F05CFE1D
:10312800094B5B78002B0BD1074B1B78002BF5D193
:1031380000F014FC022005F0B5FD01F04DFE00E0A2
:1031480000BF0837BD4680BDEC06002080B582B0C0
:1031580000AF08F023FBFDF7F3FE03F0E5F903F0F9
:10316800C7FF04F019FC05F02FFA102200212948A6
:1031780010F06EFF284B00221A70284B93F8583035
:1031880003F01003002B02D0234B01221A70224BAC
:103198001B78FB71142200211F4810F059FF1E4AAA
:1031A800FB7913701C4B6422DA711B4B64221A7270
:1031B800194B64225A7210220021194810F048FF56
:1031C800184B00221A70184B00221A70174B002255
:1031D8001A70174B00221A70164B00221A7003F04F
:1031E8007BFAFDF75FFF03F0A1FFFDF7EFFDFFF7A7
:1031F8001DFD01F02FFC00F00DFF04F083FB01F032
:103208009BFAFDF769FF02F03BFB01F0C3FC00BF2E
:10321800BDE700BF00070020EC060020D01000200A
:103228001007002020070020210700202207002087
:10323800230700202407002080B582B000AF786003
:103248003960214B93F8583003F02003002B06D047
:103258001E4B1B78202B02D07868FFF74BFF1B4BC7
:103268001B78022B29D001F0B7FD184B5B78002B97
:1032780025D100F075FF0346002B02D001F0A0FD18
:10328800F1E700BF3968786801F03EF80346002B83
:1032980016D10D4B93F8583003F00203002B0FD0D2
:1032A8003B681B7A03F01003002B09D03B685B686E
:1032B8001946102004F046F802E000BF00E000BF05
:1032C8000837BD4680BD00BFD0100020EC060020A6
:1032D800B0B598B000AFF860B9607A603B6097F815
:1032E80074309B007A681344186897F874309B0010
:1032F8003A6813441B681946FDF73EFA0346BB6457
:1033080097F878309B007A681344186897F87830F3
:103318009B003A6813441B681946FDF72DFA0346CB
:103328007B6497F874309B003A6813441B6883F0F9
:103338000043FB6597F878309B003A6813441B6894
:1033480083F00043BB6597F874309B00FA68134418
:103358001B68B96C1846FDF70DFA03463B6497F8ED
:1033680078309B00FA6813441B68796C1846FDF79F
:1033780001FA0346FB63F96BF86DFDF705FB03469D
:103388001C46396CB86DFDF7FFFA0346194620460E
:10339800FDF7F0F903461C46396CF86DFDF7F4FAB1
:1033A80003461D46F96BB86DFDF7EEFA034619465C
:1033B8002846FDF7E1F903461946204611F016FFA5
:1033C800786597F88030002B1BD0786DFDF79EF854
:1033D80099A3D3E90023FDF765F90346002B2BD009
:1033E800786DFDF793F896A3D3E90023FCF72EFF39
:1033F80002460B4610461946FDF768F903467B65F9
:103408001AE0786DFDF782F88FA3D3E90023FDF762
:103418003FF90346002B0FD0786DFDF777F888A3A6
:10342800D3E90023FCF714FF02460B461046194661
:10343800FDF74CF903467B654FF07C51786DFDF73D
:10344800A3FA0346396F1846FDF79EFA034623F0A0
:1034580000447F4BDD6C3B6F19461846FDF78CF92D
:1034680003461A467A4BDB6C19461046FDF782F97B
:10347800034619462846FDF787FA0346184611F011
:10348800B7FE034619462046FDF732FB03461846A9
:1034980012F01AF803461846FDF778FC03467B87B6
:1034A8007B8F002B00F08D81BB681B7A03F008032B
:1034B800002B15D0BB681C687B8F1846FDF710FAE7
:1034C800034619462046FDF75FFA03461A46BB68CD
:1034D8001A60BB681B7A23F00803DAB2BB681A7259
:1034E8007B8F1846FDF7FCF903461946786DFDF702
:1034F800FFFA03467B63002387F853303BE097F8D5
:10350800532097F87C309A4203D097F85330032B16
:1035180023D197F853309B00FA681344186897F83A
:1035280053309B007A6813441B681946FDF722F94B
:1035380003461D467B8F1846FDF7D2F9034697F8D8
:10354800534019462846FDF7D3FA03461A46A30006
:1035580060333B4443F8502C08E097F853309B0005
:1035680060333B444FF0000243F8502C97F8533037
:10357800013387F8533097F85330032BBFD9796B51
:10358800786BFDF701FA034619464FF08040FDF7C6
:10359800F1F803463B632F49786BFDF7F5F90346CD
:1035A8001C464FF08141386BFDF7E6F80346194693
:1035B8002046FDF7E9F90346FB624FF07C51386B72
:1035C800FDF7E2F903463B63002387F84F300123F8
:1035D800A7F85030EFE097F84F300B2B3CD8F96A3A
:1035E800F86DFDF7D1F903461C46396BB86DFDF748
:1035F800CBF9034619462046FDF7BEF803463B6261
:10360800396BF86DFDF7C0F903461C46F96AB86DC9
:10361800FDF7BAF9034619462046FDF7ABF803460D
:10362800FB653B6ABB6597F84F30013387F84F302D
:1036380071E000BFAFF300808DEDB5A0F7C6A0BE66
:10364800182D4454FB2119408DEDB5A0F7C6A03EB6
:10365800D0100020ABAA2A3EB7F850301846FDF724
:103668003FF90346796B1846FDF78EF9034618466D
:1036780011F0DCFDB862B7F850301846FDF730F9A4
:103688000346796B1846FDF77FF90346184611F093
:10369800FFFD786297F874309B003A6813441B6802
:1036A80083F00043B96A1846FDF76EF903461C46D5
:1036B80097F878309B003A6813441B68796A184673
:1036C800FDF762F9034619462046FDF755F803460B
:1036D800FB6597F874309B003A6813441B6883F0C5
:1036E8000043796A1846FDF74FF903461C4697F8D8
:1036F80078309B003A6813441B68B96A1846FDF78E
:1037080043F9034619462046FDF734F80346BB65DE
:10371800002387F84F3097F874309B007A68D418E4
:10372800F96DB86CFDF728F80346236097F87830F0
:103738009B007A68D418B96D786CFDF71DF80346BC
:103748002360002387F8533024E097F8532097F834
:103758007C309A4203D097F85330032B15D197F851
:1037680053309B007A681344186897F853309B00CD
:1037780060333B4453F8501C97F853309B007A68E9
:10378800D418FCF7F9FF0346236097F85330013348
:1037980087F8533097F85330032BD6D9B96878682F
:1037A800FFF74AFD0B4B5B78002B0FD1B7F8503071
:1037B8000133A7F85030B7F850207B8F9A42FFF4B6
:1037C8000AAFB968F868FFF737FD00E000BF603757
:1037D800BD46B0BDEC06002080B582B000AF786071
:1037E800074B1B78022B06D001F0D2FA002178682B
:1037F80000F0C0F900E000BF0837BD4680BD00BF3B
:10380800EC06002080B582B000AF0346FB71FFF7DD
:1038180013FA0420FFF736FA0320FFF733FA01F012
:10382800DBFA074B5B78002B06D1FDF755FC00F05F
:1038380083FFFFF7FBF900E000BF0837BD4680BDF6
:10384800EC06002090B587B000AFF860B960134669
:10385800FB713E4B1B78022B01D1002372E001F073
:1038680097FA3A4B5B78002B01D002236AE0FB7988
:1038780003F00803002B14BF01230023DBB2FB7500
:10388800FB7903F01003002B14BF01230023DBB2E4
:10389800BB752E4B00225A71FB7D184601F0E2F8E9
:1038A80001F008F90346002B09D0042005F0FAF9C5
:1038B80001F092FA002001F0D5F8022342E0B9683D
:1038C800F868FFF7B9FC224B01221A70022005F0B4
:1038D800A7F901F081FA1D4B5B78002B01D0022378
:1038E80030E01A4B1B78002BF3D1194B1B78DBB255
:1038F800012B0DD1BB7D002B06D0164A164B144662
:103908000FCB84E80F0006E0052005F0CBF902E0B4
:103918000E4B01225A710E4B00221A70002001F042
:10392800A1F801F059FA03F0EDFF00F073FB00F085
:1039380003FF02F0F5F8054B5B79002B01D001235A
:1039480000E0002318461C37BD4690BDEC06002059
:1039580020070020100700200007002080B500AFD6
:10396800164B1B78DBB203F01003002B24D1102078
:1039780005F056F903F00DFCFDF743FA104B1B78E0
:1039880003F02C03002B05D10D4B1B7903F0060324
:10399800002B11D00A4B1B78042B08D1094B1B783C
:1039A800DBB2002B06D1062005F07CF902E00320EB
:1039B80005F078F903F014FD00BF80BD2107002051
:1039C800EC0600202207002080B58AB000AFF8601E
:1039D800B9607A60BB681B781A46FB6813447B623F
:1039E8007B6A5A1C7A621B7887F82330002387F891
:1039F800223097F823302D2B09D1012387F8223064
:103A08007B6A5A1C7A621B7887F8233009E097F89A
:103A180023302B2B05D17B6A5A1C7A621B7887F8D6
:103A280023300023FB610023FB760023BB760023B1
:103A38007B7697F82330303B87F8233097F823308C
:103A4800092B25D8BB7E0133BB76BB7E082B12D849
:103A58007B7E002B05D097F91B30DBB2013BDBB234
:103A6800FB76FB699A00FB6913445A0097F82330E8
:103A78001344FB6118E07B7E83F00103DBB2002B6B
:103A880012D097F91B30DBB20133DBB2FB760BE0C7
:103A980097F82330FE2B0ED17B7E83F00103DBB237
:103AA800002B08D001237B767B6A5A1C7A621B782C
:103AB80087F82330BDE7BB7E002B01D100234FE000
:103AC800F869FCF709FF03467B614FF0000178694C
:103AD800FDF7EEF80346002B2CD109E0224978695E
:103AE800FCF752FF03467B61FB7E0233DBB2FB76B9
:103AF80097F91B30B3F1FF3FF0DB97F91B30002B30
:103B080006DA1A497869FCF73FFF03467B6111E042
:103B180097F91B30002B0DDD15497869FCF734FF48
:103B280003467B61FB7E013BDBB2FB7697F91B30DA
:103B3800002BF1DC97F82230002B05D07B6983F04D
:103B480000427B681A6002E07B687A691A607A6AC8
:103B5800FB68D31ADBB2013BDAB2BB681A700123E7
:103B680018462837BD4680BD0AD7233CCDCCCC3D6E
:103B78000000204180B584B000AF78600B46FB7030
:103B880017497868FCF700FF0346184611F058FCFF
:103B980003461846FDF7FAF80346FB8114E0114B7B
:103BA8005B78002B16D1FB78002B02D101F014F9B9
:103BB80007E001F021F90B4B9B7803F00203002B7F
:103BC8000AD1322008F00AFDFB895A1EFA81002B1F
:103BD800E5D102E000BF00E000BF1037BD4680BD60
:103BE8000000A041EC06002080B582B000AF03467B
:103BF800FB8002E0012008F0F1FCFB885A1EFA80E5
:103C0800002BF7D100BF00BF0837BD4680BD90B577
:103C180083B000AF7860396079687868FCF7B4FEE3
:103C280003461C4639683868FCF7AEFE0346194659
:103C38002046FCF7A1FD0346184611F0D9FA0346C1
:103C480018460C37BD4690BD90B587B000AF786078
:103C58004FF000033B610023FB7523E0FB7D9B00D5
:103C68007A6813441B684FF000011846FDF720F8E6
:103C78000346002B13D1FB7D9B007A681344186818
:103C8800FB7D9B007A6813441B681946FCF77CFE91
:103C9800034619463869FCF76FFD03463B61FB7D17
:103CA8000133FB75FB7D032BD8D9386911F0A0FAD5
:103CB800386139694FF07E50FCF71AFF0346FB6004
:103CC8000023FB7510E0FB7D9B007A68134418689D
:103CD800FB7D9B007A68D418F968FCF755FE03460B
:103CE8002360FB7D0133FB75FB7D032BEBD93B691F
:103CF80018461C37BD4690BD80B584B000AF7860CB
:103D08003960234BBB600023FB7339E0FB7B9B00CE
:103D18003A6813441B684FF000011846FCF7C8FFC7
:103D28000346002B29D1FB7B9B007A681344186853
:103D3800FB7B9B003A6813441B681946FCF7D8FEC6
:103D4800034623F000431946B868FCF7BBFF034657
:103D5800002B01D0BB680FE0FB7B9B007A68134403
:103D68001868FB7B9B003A6813441B681946FCF7EC
:103D7800BFFE034623F00043BB60FB7B0133FB73AC
:103D8800FB7B032BC2D9BB6818461037BD4680BDE4
:103D9800FFFF7F7F80B483B000AF0346FB71FB79E0
:103DA8000133FB71FB79242B01D10023FB71FB79D3
:103DB80018460C37BD4680BC704780B483B000AF4E
:103DC8000346FB71FB79002B01D12423FB71FB799E
:103DD800013BFB71FB7918460C37BD4680BC704728
:103DE80090B585B000AF874B1B781846FFF7E5FF05
:103DF8000346FB73844B1B78FA7B9A4200F0FD80E4
:103E0800FA7B1346DB009B1ADB00804A13447B6075
:103E18007B68DC697B681B6A19461846FCF7ACFCB2
:103E280003461A467B685B6A19461046FCF7ACFDE8
:103E3800034619462046FCF745FF0346002B02D0EF
:103E48007B68DB690EE07B681B6A19461846FCF73D
:103E580093FC03461A467B685B6A19461046FCF7D2
:103E680093FD03467A689361FB7B1846FFF7A5FF2D
:103E78000346FB73644B1B78FA7B9A4251D1644B1F
:103E88001B78FA7B9A4251D103F08CFD4EE07B6897
:103E9800BB60FA7B1346DB009B1ADB005B4A1344CA
:103EA8007B60FB7B1846FFF788FF0346FB73584B84
:103EB8001B78FA7B9A4201D103F074FD7B689A69FA
:103EC8007B68DB6919461046FCF7F2FE0346002BB7
:103ED80027D1BB689C697B681B6A19461846FCF7A2
:103EE8004BFC03461A467B685B6A19461046FCF78A
:103EF8004BFD034619462046FCF73EFC03463B6053
:103F08007B68DB6919463868FCF7DCFE0346002B42
:103F180003D07B683A689A6103E07B68DA697B685A
:103F28009A61394B1B78FA7B9A42B0D1364B1B7891
:103F38001A461346DB009B1ADB00344A1344BB6065
:103F4800314B1B781846FFF725FF0346FB734EE0FD
:103F5800BB687B60FA7B1346DB009B1ADB002B4AAD
:103F68001344BB607B689A69BB689B691946104615
:103F7800FCF7A8FE0346002B25D07B689C697B686C
:103F88001B6A19461846FCF7F7FB03461A467B6876
:103F98005B6A19461046FCF7F7FC034619462046AB
:103FA800FCF7EAFB03463B60BB689B691946386827
:103FB800FCF788FE0346002B05D0BB683A689A6177
:103FC800114AFB7B1370BB689A69BB68DB691946A9
:103FD8001046FCF76DFE0346002B02D00A4AFB7B15
:103FE8001370FB7B1846FFF7D5FE0346FB73054BA2
:103FF8001B78FA7B9A42ABD100E000BF1437BD466C
:1040080090BD00BF090F00200B0F002028070020DB
:10401800080F002080B500AF24220021034810F0CB
:1040280017F800F005F800BF80BD00BF0C0F002096
:1040380080B400AF074B00221A70074B00221A7099
:10404800064B01221A70064B00221A7000BFBD46AB
:1040580080BC7047080F0020090F00200A0F0020BD
:104068000B0F002080B582B000AF0E4B1A780E4BB4
:104078001B789A4212D00C4B1B781846FFF78AFE21
:104088000346FB71084B1A78084B1B789A4202D1F9
:10409800064AFB791370044AFB79137000BF08378E
:1040A800BD4680BD090F0020080F00200B0F00201F
:1040B80080B400AF064B1B781A461346DB009B1AE8
:1040C800DB00044A13441846BD4680BC704700BF55
:1040D800090F00202807002080B400AF0A4B1A7887
:1040E8000A4B1B789A4201D1002308E0074B1B7842
:1040F8001A461346DB009B1ADB00054A1344184690
:10410800BD4680BC704700BF090F0020080F002083
:104118002807002080B582B000AF0E4B1B781846E8
:10412800FFF738FE0346FB710B4B1B78FA799A426E
:1041380002D14FF0000308E0FA7908491346DB0082
:104148009B1ADB000B4418331B6818460837BD461A
:1041580080BD00BF080F0020090F0020280700209D
:1041680080B400AF064B1A78064B1B789A4201D1EF
:10417800012300E000231846BD4680BC704700BFFD
:10418800080F00200A0F002080B584B000AF7860C7
:104198007B681B6BFB607B685B7D03F00103002B76
:1041A80011D0224B1B7A1846FCF79AFB034620498C
:1041B8001846FCF7E9FB03461946F868FCF7E4FBE8
:1041C8000346FB6022E07B685B7D03F00403002B61
:1041D80010D1164BDB791846FCF782FB03461449CD
:1041E8001846FCF7D1FB03461946F868FCF7CCFBE8
:1041F8000346FB607B68DB6A1946F868FCF780FDBC
:104208000346002B02D07B68DB6AFB604FF07E51CF
:10421800F868FCF775FD0346002B01D0FB6801E048
:104228004FF07E5318461037BD4680BDEC0600207F
:104238000AD7233C80B584B000AFF860B9607A60D3
:104248007968B868FCF75CFD0346002B08D07968EC
:104258007868FCF799FB03461A46FB68DA6107E0C1
:10426800B968B868FCF790FB03461A46FB68DA6140
:10427800FB68DA69FB689B6A19461046FCF740FD43
:104288000346002B00D103E0FB689A6AFB68DA61F9
:1042980000BF1037BD4680BD80B584B000AF154B58
:1042A8001B78FB73144BBB6018E0FA7B1346DB00EA
:1042B8009B1ADB00114A13447B607868FFF764FFA0
:1042C8003860BA6839687868FFF7B4FF3B68BB6044
:1042D800FB7B1846FFF75EFD0346FB73084B1B7814
:1042E800FA7B9A42E1D1074ABB68136200BF1037D4
:1042F800BD4680BD080F0020FFFF7F7F28070020F4
:10430800090F00200C0F002090B59BB000AF78601B
:104318003960AF4B1B781A461346DB009B1ADB004B
:10432800AC4A1344FB6538220021F86D0FF090FE6B
:104338003B681A7AFB6D5A753B685A68FB6D5A637D
:10434800FB6D5B7D03F00203002B06D0A24B07F147
:104358002C040FCB84E80F0005E0A04B07F12C04D8
:104368000FCB84E80F00002387F867307BE097F8CD
:1043780067309B007A6813441A6897F86730984941
:1043880051F8233019461046FCF7FEFA034697F811
:104398006740184610F0B0FF0246A30068333B445C
:1043A80043F82C2C97F867309B0068333B4453F84C
:1043B8002C2C97F867309B0068333B4453F83C3CFF
:1043C800D31A002BB8BF5B4297F867201946FB6DDC
:1043D80043F8221097F86720FB6D53F82220FB6DF5
:1043E8001B699A4238BF1A46FB6D1A6197F8673005
:1043F8009B0068333B4453F82C2C97F867309B009C
:1044080068333B4453F83C3CD31A1846FCF768FA27
:10441800024697F86730724951F82330194610461A
:10442800FCF766FB0346FB6497F867309B0068332C
:104438003B44FA6C43F84C2C4FF00001F86CFCF745
:1044480041FC0346002B09D0FB6D1A7D97F86730B5
:104458006449CB5C1343DAB2FB6D1A7597F8673081
:10446800013387F8673097F86730032B7FF67FAF03
:10447800FB6D1B69002B01D100234EE107F11C03E2
:104488001846FFF7E1FB0246FB6D5A6207F11C0371
:1044980019465548FFF730FC0246FB6D1A6207F1D2
:1044A8001C0319465148FFF727FC0246FB6DDA62E8
:1044B800FB6D5B7D03F00103002B04D0FB6DDA6A12
:1044C800FB6D1A6315E03B681A68FB6D1A63FB6D98
:1044D8005B7D03F00803002B0BD0FB6D1A6BFB6DA3
:1044E8005B6A19461046FCF74FFA03461A46FB6DFD
:1044F8001A63374B1A783E4B1B789A4205D0FB6DEE
:104508005B7D03F00203002B08D0FB6D4FF0000227
:104518009A61FB6D4FF000029A62CBE04FF0000306
:104528003B66002387F8673036E097F867302B4AF8
:10453800043352F8232097F867309B0068333B44D4
:1045480053F84C3C19461046FCF71EFA0346194628
:10455800386EFCF70FF903463B6697F867309B0007
:1045680068333B4453F84C2C97F867301B490433A5
:1045780051F8233097F8674019461046FCF7FAF8C7
:1045880003461A46A30068333B4443F85C2C97F86B
:104598006730013387F8673097F86730032BC4D941
:1045A8001449386EFCF7ACFB0346002B04D0FB6DB6
:1045B8004FF000029A627DE00F49386EFCF782FBEB
:1045C8000346002B1CD0FB6D0C4A9A6272E000BFB8
:1045D800090F002028070020000700200C0F0020EA
:1045E800D0100020686E0108F0100020E0100020B4
:1045F800080F0020EFFF7F3FEFFF7FBFFFFF7F7FA8
:1046080007F10C031846FFF71FFB07F10C031946C7
:104618004448FFF771FBB865396E4FF07E50FCF7E0
:10462800A9F803464FF07C511846FCF7ADF903464C
:10463800184610F0DDFD78653B4B9B6CB96D18464C
:10464800FCF7A2F90346796D1846FCF79DF9034675
:104658001C46796D4FF07E50FCF78CF803461946DE
:104668002046FCF745FA03464FF000011846FCF7D0
:1046780029FB0346002B02D04FF0000218E02A4B1A
:104688009B6CB96D1846FCF77FF90346796D18469F
:10469800FCF77AF903461C46796D4FF07E50FCF71B
:1046A80069F8034619462046FCF722FA03461A46DB
:1046B800FB6D9A62FB6D5B7D03F00203002B2BD12F
:1046C800F86DFFF761FD3865184B1B6A1A46396D9E
:1046D800F86DFFF7AFFD154A3B6D1362134B03F1FD
:1046E800100407F11C030FCB84E80F000F4B1C4686
:1046F80007F13C030FCB84E80F000D4B1A780D4BE4
:104708001A700C4B1B781846FFF744FB03461A46F1
:10471800074B1A70FFF764FB012318466C37BD4638
:1047280090BD00BFF0100020D01000200C0F00201A
:104738000A0F0020090F002080B483B000AF0023C7
:10474800FB710AE0FA79FB79084951F822200849F7
:1047580041F82320FB790133FB71FB79032BF1D955
:1047680000BF00BF0C37BD4680BC70470007002063
:104778000C0F002080B400AF0D4B1A780D4B1B783E
:104788009A4208D30B4B1A78094B1B78D31ADBB221
:104798002333DBB207E0074B1A78054B1B78D31A93
:1047A800DBB2013BDBB21846BD4680BC704700BF98
:1047B800090F0020080F002080B500AF03F0F2F8C1
:1047C800034B1A78034B1A70FFF70AFB00BF80BD32
:1047D800080F00200B0F002080B582B000AF786072
:1047E80006E07B685A1C7A601B78184601F00AFFBD
:1047F8007B681B78002BF4D100BF00BF0837BD468B
:1048080080BD000080B584B000AF0346FB71002373
:10481800FB730023BB73FB79632B12D9FA79204B06
:10482800A3FB0213D9080B469B000B445B00D31A69
:10483800DBB23033FB73FB79194AA2FB0323DB0895
:10484800FB71FB79092B12D9FA79154BA3FB0213DB
:10485800D9080B469B000B445B00D31ADBB23033FC
:10486800BB73FB790E4AA2FB0323DB08FB71FB79C0
:104878003033DBB2184601F0C5FEBB7B002B03D0FA
:10488800BB7B184601F0BEFEFB7B002B03D0FB7BF5
:10489800184601F0B7FE00BF1037BD4680BD00BF07
:1048A800CDCCCCCC80B588B000AF78600B46FB701F
:1048B8004FF000017868FCF705FA0346002B06D094
:1048C8002D2001F09FFE7B6883F000437B60FB781E
:1048D800FB7708E03A497868FCF756F803467B60AE
:1048E800FB7F023BFB77FB7F012BF3D8FB7F002B81
:1048F80005D034497868FCF747F803467B604FF0E9
:104908007C517868FBF738FF03467B600023BB7750
:104918007868FCF715FA0346BB6119E0B9692A4BB8
:10492800A3FB0123DA0813469B0013445B00CA1A51
:10493800D2B2BB7F591CB9773032D2B220333B4454
:1049480003F8182CBB69204AA2FB0323DB08BB61D0
:10495800BB69002BE2D107E0BB7F5A1CBA77203332
:104968003B44302203F8182CBA7FFB789A42F3D3E1
:10497800BA7FFB789A421BD1BB7F5A1CBA77203387
:104988003B44302203F8182C12E0BA7FFB789A4295
:1049980002D12E2001F036FEBB7F013B20333B4481
:1049A80013F8183C184601F02DFEBB7F013BBB777E
:1049B800BB7F002BE9D100BF00BF2037BD4680BDBB
:1049C8000000C84200002041CDCCCCCC80B582B0DC
:1049D80000AF78600C4B93F8583003F00103002BBC
:1049E80009D00A497868FBF7CFFF03460421184627
:1049F800FFF758FF03E003217868FFF753FF00BF74
:104A08000837BD4680BD00BFD01000208B42213D35
:104A180080B582B000AF78600C4B93F8583003F043
:104A28000103002B09D00A497868FBF7ADFF03465C
:104A380001211846FFF736FF03E000217868FFF7E9
:104A480031FF00BF0837BD4680BD00BFD010002031
:104A58008B42213D80B500AF002000F003F800BF75
:104A680080BD000080B483B000AF0346FB710F4BDC
:104A780000221A700E4B93F858305BB2002B06DBFD
:104A88000A4B1B7883F00103DAB2084B1A70FB79E2
:104A9800002B06D0054B1B7883F00103DAB2034BD9
:104AA8001A7000BF0C37BD4680BC7047300F00201D
:104AB800D010002080B500AF07F018F80346002B8F
:104AC80001D0012300E00023044A1278934214BF66
:104AD80001230023DBB2184680BD00BF300F002041
:104AE80098B500AFFFF7E6FF0346002B10D0094B3F
:104AF80000221A70084A094B14460FCB84E80F00AD
:104B0800074B1B78DBB243F04003DAB2044B1A7050
:104B180000BF98BD200700201007002000070020D4
:104B28002107002080B582B000AF06F07DFD034666
:104B3800FB71FB79022B03D1124B01221A701DE085
:104B4800FB79012B17D1104B9B78002B07D00E4B0C
:104B58001B78102B11D1202004F0FEF80DE002F094
:104B680005FB0346002B01D1084B00E0084B184613
:104B7800FCF7BEFA02E000BF00E000BF0837BD4600
:104B880080BD00BF840F0020EC0600206466010889
:104B98006866010880B582B000AF774B93F858304B
:104BA80003F00803002B0AD0FEF74CF80346002B4D
:104BB80005D0724B01221A70072000F0F1FD6F4BEF
:104BC8001B7803F08103002B06D0022000F0E8FDDB
:104BD8006A4B01221A7014E0684B00221A7003F025
:104BE80000FD0346002B09D0654B1B78DBB243F070
:104BF8002003DAB2624B1A7000F0EEF8614803F055
:104C0800F7FC614B1B78002B0ED0604A3B461268BC
:104C1800114619800233120C1A705B4B00221A706D
:104C28003B46184603F014FD0023FB710023BB71BB
:104C380088E07B790A2B02D07B790D2B3DD100F0DF
:104C4800CBF84E4B5B78002B40F08F80BB794D4AF8
:104C58000021D154FB7903F00103002B03D00B2072
:104C680000F068FD24E0474B1B78002B03D100209F
:104C780000F060FD1CE0434B1B78242B07D1414812
:104C880003F0E6FC0346184600F054FD10E03B4BE9
:104C98001B7803F02103002B03D0092000F04AFD04
:104CA80006E03848FCF724FA0346184600F042FDAF
:104CB8000023FB710023BB7144E0FB79002B0CD06F
:104CC8007B79292B3ED1FB7903F00203002B39D0E5
:104CD800FB7923F00203FB7134E07B79202B31D977
:104CE8007B792F2B2ED07B79282B04D1FB7943F0AD
:104CF8000203FB7126E07B793B2B04D1FB7943F05F
:104D08000403FB711EE0BB794E2B04D9FB7943F0F9
:104D18000103FB7116E07B79602B0CD97B797A2B28
:104D280009D8BB795A1CBA711A467B79203BD9B28B
:104D3800144B995406E0BB795A1CBA711946114AAA
:104D48007B79535401F086FC03467B717B79FF2BFA
:104D58007FF46FAFFFF7E6FE00F032F800F03CF8A2
:104D6800064B5B78002B02D1ECE700BF00E000BFE8
:104D78000837BD4680BD00BFD0100020EC060020DB
:104D880021070020340F0020840F00206C660108E2
:104D980080B500AF00F014F800F01EF8074B5B7800
:104DA800002B09D1FFF798F90346002BF4D1034BE8
:104DB8001B78082BF0D000E000BF80BDEC06002077
:104DC80080B500AFFFF788F90346002B02D0022018
:104DD80003F026FF00BF80BD80B500AF00F00CF8DF
:104DE80006F0E6FC034B9B78002B01D000F0CEFACE
:104DF80000BF80BDEC06002080B582B000AF9D4B9F
:104E08001B78FB70FB78002B1BD09B4B01221A7080
:104E1800FB78184600F0ACFCFB78012B02D0FB783D
:104E2800022B0CD1012000F0BBFC102003F018FF6E
:104E3800924B1B78DBB203F01003002BF8D003F081
:104E480051FF8E4B1B78FB70FB78002B00F07D81A7
:104E5800FB7803F01003002B03D0874B01225A7014
:104E68008AE2FB7803F00103002B04D000F0EAFF8C
:104E7800012003F0F5FEFB7803F0E803002B00F0B7
:104E880095807D4B1B7803F00303002B79D17A4B77
:104E98001B7803F02803002B19D0774B9B7803F07D
:104EA800C003002B13D102F07DFD734B02221A714F
:104EB800714B1B78202B0AD197F90330002B06DBA6
:104EC8006D4B9B7863F07F03DAB26B4B9A706A4B39
:104ED8001B78002B02D1684B01229A70FB7803F0F3
:104EE8004003002B0CD0644B1B7803F02003002BED
:104EF80006D1614B9B7843F04003DAB25E4B9A705F
:104F0800FB7803F00803002B08D05B4B1B7803F0F9
:104F1800E003002B02D1584B10221A70FB7803F0E3
:104F28002003002B2DD0062000F03AFC524B9B7832
:104F38005BB2002B1EDB504B1B78402B13D14E4B22
:104F48009B7803F00803002B0DD04B4B9B7823F084
:104F58001C03DAB2484B9A70474B9B7843F0020324
:104F6800DAB2454B9A70444B1B78802B02D0424BE7
:104F780040221A70404B9B7843F02003DAB23E4B34
:104F88009A7097F90330002B0DDA3B4B1B78012BF5
:104F980006D1394B9B7843F00503DAB2364B9A7049
:104FA800354B80221A70E82003F05AFEFB7803F094
:104FB8000203002B6DD0FB7803F06803002B65D14A
:104FC8002D4B1B78402B1CD12B4B9B7803F02003D7
:104FD800002B16D1284B9B7803F01003002B03D02D
:104FE800254B00221A700CE0234B9B7803F0040336
:104FF800002B06D0204B9B7843F00803DAB21E4BF7
:105008009A701D4B1B78002B0BD01B4B1B7803F0A1
:105018001003002B3AD0184B9B7803F00103002BA8
:1050280034D0154B1B78102B0BD1134B9B7A002BCC
:1050380007D0114B9B7A43F00803DAB20E4B9A72F1
:1050480024E00D4B00221A71FFF746F80346002BA7
:1050580016D0094B9B7803F04003002B10D1064B68
:1050680000229A70044B08221A7002F0D1FC02F058
:1050780081F90BE022070020EC0600202107002020
:10508800974B00229A70964B00221A70022003F068
:10509800E7FDFB7803F00403002B56D0904B1B78F8
:1050A80003F0D003002B1FD08D4BDB78002B1BD1D6
:1050B8008B4B9B785BB2002B16DBFFF77DFB884B95
:1050C8001B7903F00203002B06D0854B9B7843F035
:1050D8000103DAB2824B9A70814B1B7923F00603E5
:1050E800DAB27F4B1A712DE07D4B9B785BB2002BB7
:1050F8000ADA7B4B00221A71FEF78CFF02F002FCE1
:10510800FBF7EAFFFFF718FB754B9B7803F02003CA
:10511800002B11D0724B9B7803F07F03DAB2704BEF
:105128009A706F4B9B7843F00103DAB26C4B9A701C
:105138006B4B40221A7005E0694B00229A70684B4D
:1051480000221A70042003F08BFD664B1B78FB705D
:10515800FB78002B63D003F01FFE614BDB79FB71FA
:10516800FB7803F00103002B01D06423FB71FB786B
:1051780003F00203002B02D0FB790A33FB71FB78A2
:1051880003F00403002B02D0FB790A3BFB71FB7888
:1051980003F00803002B02D0FB790133FB71FB7885
:1051A80003F01003002B02D0FB79013BFB71FB7964
:1051B800C82B28BFC823FB71FB790A2B38BF0A23E9
:1051C800FB71474B1B7ABB71FB7803F02003002B64
:1051D80001D06423BB71FB7803F04003002B01D09E
:1051E8003223BB7197F90330002B01DA1923BB7105
:1051F8003B4BDB79FA799A4204D1394B1B7ABA795D
:105208009A420CD0364AFB79D371354ABB7913726E
:10521800334B0022DA72FFF73FF8FFF7CDFA324B33
:105228001B78FB70FB78002B00F0948003F0CEFD18
:105238002B4B5B7A7B71FB7803F00103002B01D0C9
:1052480064237B71FB7803F00203002B02D07B7987
:105258000A337B71FB7803F00403002B02D07B79BF
:105268000A3B7B71FB7803F00803002B02D07B79A3
:1052780001337B71FB7803F01003002B02D07B799C
:10528800013B7B717B79C82B28BFC8237B717B7955
:105298000A2B38BF0A237B71114B5B7A7A799A42C1
:1052A8000CD00F4B1B7943F00803DAB20C4B1A7180
:1052B8000B4A7B7953720A4B0022DA72FB7803F0AF
:1052C8002003002B1FD0064B1B78102B1BD1044B3F
:1052D8009B7A002B0AD1024B02229A7213E000BF7C
:1052E800EC0600202307002024070020244B9B7A8B
:1052F80003F00103002B06D0214B9B7A43F00403F3
:10530800DAB21F4B9A72FB7803F0C003002B21D04E
:105318001B4B1B78002B05D0194B1B7803F0180387
:10532800002B17D0174B1B7A3B713B7903F04003D6
:10533800002B04D03B7923F040033B7103E03B7919
:1053480043F040033B713B791846FBF765FD0D4A76
:105358003B7913720C4B1B78DBB2002B04D000F0A6
:10536800FFFF094B00221A70054B1B7803F0FC0362
:10537800002B01D002F04CFB0837BD4680BD00BFB2
:10538800EC060020540600202507002080B584B0D4
:1053980000AFFEF7A1FE78607B68002B09D19E4B19
:1053A8005A7A9D4B1B7A1343FB739B4BDB68BB609C
:1053B80005E07B685B7DFB737B685B6BBB60974B31
:1053C80093F8583003F00203002B00F01B812020D3
:1053D80003F0C2FC16E1924B5B78002B40F0188179
:1053E8008F4B9B7803F00103002B00F005818C4B59
:1053F8001B7803F0C003002B00F09D80884B9B783E
:1054080003F00403002B19D1854B00229A724FF048
:105418000001002001F058FF0020FBF7FDFC804B45
:105428009B7823F00203DAB27D4B9A707C4B9B7811
:1054380043F00403DAB27A4B9A70DDE0784B1B78BC
:10544800802B14D10B2000F0ABF94FF000010020A5
:1054580001F03AFF0020FBF7DFFC01F0C1FF01E09B
:10546800FFF7CAFC6E4B5B78002BF9D0D1E06C4B90
:105478001B78402B0BD103F0B4F80346002B06D160
:10548800674B9B7823F02003DAB2654B9A70644B24
:105498009B7803F00803002B00F0AE805E4B5B7A2C
:1054A800002B21D05E4B9B7803F00203002B1BD10D
:1054B8005A4B93F8583003F00203002B07D0584B8F
:1054C8001B7943F00803DAB2554B1A710CE0FB7BE9
:1054D80003F03003DBB2B968184601F0F5FE01218C
:1054E8004FF08140FEF746FB4B4B1B7A002B11D047
:1054F8004B4B9B7803F00203002B0BD1FB7B03F093
:105508004003DBB21846FBF787FC01214FF07E50C1
:10551800FEF730FB424B9B7803F00203002B6BD164
:105528003F4B9B7843F01003DAB23D4B9A70022050
:1055380003F076FB60E03A4B9B7A002B47D0384B60
:105548009B7A03F00203002B10D0334B5B7A002BBD
:1055580008D04FF00001002001F0B6FE304B0122C8
:105568009A7249E02E4B00229A7245E02C4B9B7AA6
:1055780003F00C03002B3FD0274B5B7A002B19D08C
:105588000A2000F00DF9254B93F8583003F0020378
:10559800002B07D0224B1B7943F00803DAB2204BCB
:1055A8001A7107E0FB7B03F03003DBB2B9681846D9
:1055B80001F08AFE1A4B9B7A03F00803002B02D0F5
:1055C800022003F02DFB164B00229A7214E0144BB4
:1055D8001B7903F00803002B0ED0FB7B03F030038C
:1055E800DBB2B968184601F06FFE0D4B1B7923F04A
:1055F8000803DAB20A4B1A7106F0DAF8FFF792FAE2
:10560800FFF7FAFB064B9B78002B7FF4E4AE00E033
:1056180000BF1037BD4680BD54060020D0100020C2
:10562800EC06002080B582B000AF0346FB71242051
:1056380000F0E8FFFB791846FFF7E4F83D2000F09A
:10564800E1FF00BF0837BD4680BD000080B500AF50
:105658000248FFF7C1F800BF80BD00BF70660108AF
:1056680080B500AF5D2000F0CDFFFFF7EFFF00BF72
:1056780080BD000080B500AF0248FFF7ADF800BF5D
:1056880080BD00BF7466010880B500AF0248FFF70F
:10569800A3F800BF80BD00BF7866010880B584B05C
:1056A80000AF78600023FB7310E0FB7B9B007A68F7
:1056B80013441B681846FFF789F9FB7B022B02D8B5
:1056C8002C2000F09FFFFB7B0133FB73FB7B032B3C
:1056D800EBD900BF00BF1037BD4680BD80B582B092
:1056E80000AF03463960FB71FB791846FFF79AFF54
:1056F8003B68DBB21846FFF785F8FFF7A7FF00BF46
:105708000837BD4680BD80B582B000AF034639601A
:10571800FB711346BB71FB791846FFF783FFBB7912
:1057280019463868FFF7BEF8FFF790FF00BF083743
:10573800BD4680BD80B582B000AF0346FB71FB79E2
:10574800002B03D10848FFF747F809E00748FFF79F
:1057580043F8FB791846FFF755F8FFF777FF00BFC6
:1057680000BF0837BD4680BD7C6601088466010815
:1057780080B582B000AF0346FB710848FFF72CF8EC
:10578800FB791846FFF73EF8FFF760FF4FF4FA7011
:10579800FEF72AFA00BF0837BD4680BD8C660108AF
:1057A80080B582B000AF0346FB712948FFF714F8B3
:1057B800FB79013B0A2B45D801A252F823F000BF20
:1057C800F5570008FD570008055800080D5800084F
:1057D800155800081D580008255800082D580008BD
:1057E800355800083D580008455800081948FEF784
:1057F800F3FF27E01848FEF7EFFF23E01748FEF70E
:10580800EBFF1FE01648FEF7E7FF1BE01548FEF721
:10581800E3FF17E01448FEF7DFFF13E01348FEF735
:10582800DBFF0FE01248FEF7D7FF0BE01148FEF749
:10583800D3FF07E01048FEF7CFFF03E00F48FEF75D
:10584800CBFF00BFFFF70CFF00BF0837BD4680BD88
:10585800946601089C660108B0660108C4660108E0
:10586800D8660108E0660108EC660108F8660108D8
:1058780008670108106701082467010838670108EC
:1058880080B500AF0248FEF7A7FF00BF80BD00BF8C
:105898004467010880B500AF0248FEF79DFF00BFCE
:1058A80080BD00BF6467010890B583B000AF9A4B14
:1058B80093F8403019460020FFF710FF964B93F8F5
:1058C800433019460120FFF709FF934B93F8413005
:1058D80019460220FFF702FF8F4B93F84230194612
:1058E8000320FFF7FBFE8C4B93F8583003F00403BA
:1058F800002B14BF01230023DBB219460420FFF755
:10590800EDFE854B93F8583003F04003002B14BF8D
:1059180001230023DBB219460520FFF7DFFE7E4B8B
:1059280093F858305BB2DBB2DB09DBB219460620CC
:10593800FFF7D4FE784B93F8443019460A20FFF756
:10594800CDFE754B9B6C032219460B20FFF7DBFE3F
:10595800714BDB6C032219460C20FFF7D4FE6E4B0B
:1059680093F8583003F0010319460D20FFF7B6FEEF
:10597800694B93F8583003F02003002B14BF012320
:105988000023DBB219461420FFF7A8FE624B93F8F8
:10599800583003F00803002B14BF01230023DBB2A7
:1059A80019461520FFF79AFE5B4B93F8583003F021
:1059B8001003002B14BF01230023DBB21946162065
:1059C800FFF78CFE544B93F8593019461720FFF710
:1059D80085FE514BDB6D032219461820FFF793FE15
:1059E8004D4B1B6E032219461920FFF78CFE4A4BBC
:1059F800B3F8643019461A20FFF770FE464B9B6EC9
:105A0800032219461B20FFF77EFE434B1B6D002225
:105A180019461E20FFF777FE3F4B5B6D00221946A3
:105A28001F20FFF770FE3C4B93F8583003F0020339
:105A3800002B14BF01230023DBB219462020FFF7F7
:105A48004DFE64237B710023BB715CE00023FB7176
:105A580050E0BB79032B4AD801A252F823F000BFCB
:105A6800795A0008935A0008AF5A0008D75A000814
:105A78007A79FB791344D8B2FB79274A52F8233054
:105A880003221946FFF73FFE31E07A79FB79134488
:105A9800D8B2FB79204A043352F82330032219463E
:105AA800FFF731FE23E07A79FB791344DCB2FB7906
:105AB800194A083352F8233018491846FBF718F8E2
:105AC8000346032219462046FFF71DFE0FE07A79A8
